{
  "contractName": "FlashLoaner",
  "abi": [
    {
      "inputs": [
        {
          "internalType": "address",
          "name": "_factory",
          "type": "address"
        },
        {
          "internalType": "address",
          "name": "_uniRouter",
          "type": "address"
        },
        {
          "internalType": "address",
          "name": "_sushiRouter",
          "type": "address"
        }
      ],
      "stateMutability": "nonpayable",
      "type": "constructor"
    },
    {
      "inputs": [
        {
          "internalType": "address",
          "name": "_sender",
          "type": "address"
        },
        {
          "internalType": "uint256",
          "name": "_amount0",
          "type": "uint256"
        },
        {
          "internalType": "uint256",
          "name": "_amount1",
          "type": "uint256"
        },
        {
          "internalType": "bytes",
          "name": "_data",
          "type": "bytes"
        }
      ],
      "name": "uniswapV2Call",
      "outputs": [],
      "stateMutability": "nonpayable",
      "type": "function"
    }
  ],
  "bytecode": "0x60c060405234801561001057600080fd5b506040516111d13803806111d18339818101604052606081101561003357600080fd5b810190808051906020019092919080519060200190929190805190602001909291905050508273ffffffffffffffffffffffffffffffffffffffff1660808173ffffffffffffffffffffffffffffffffffffffff1660601b815250508073ffffffffffffffffffffffffffffffffffffffff1660a08173ffffffffffffffffffffffffffffffffffffffff1660601b8152505050505060805160601c60a05160601c6110d56100fc60003980610408528061051452508061024b52806104d452506110d56000f3fe608060405234801561001057600080fd5b506004361061002b5760003560e01c806310d1e85c14610030575b600080fd5b6100db6004803603608081101561004657600080fd5b81019080803573ffffffffffffffffffffffffffffffffffffffff16906020019092919080359060200190929190803590602001909291908035906020019064010000000081111561009757600080fd5b8201836020820111156100a957600080fd5b803590602001918460018302840111640100000000831117156100cb57600080fd5b90919293919293905050506100dd565b005b6060600267ffffffffffffffff811180156100f757600080fd5b506040519080825280602002602001820160405280156101265781602001602082028036833780820191505090505b5090506000808614610138578561013a565b845b905060003373ffffffffffffffffffffffffffffffffffffffff16630dfe16816040518163ffffffff1660e01b815260040160206040518083038186803b15801561018457600080fd5b505afa158015610198573d6000803e3d6000fd5b505050506040513d60208110156101ae57600080fd5b8101908080519060200190929190505050905060003373ffffffffffffffffffffffffffffffffffffffff1663d21220a76040518163ffffffff1660e01b815260040160206040518083038186803b15801561020957600080fd5b505afa15801561021d573d6000803e3d6000fd5b505050506040513d602081101561023357600080fd5b810190808051906020019092919050505090506102717f000000000000000000000000000000000000000000000000000000000000000083836107d3565b73ffffffffffffffffffffffffffffffffffffffff163373ffffffffffffffffffffffffffffffffffffffff1614610311576040517f08c379a000000000000000000000000000000000000000000000000000000000815260040180806020018281038252600c8152602001807f556e617574686f72697a6564000000000000000000000000000000000000000081525060200191505060405180910390fd5b60008814806103205750600087145b61032957600080fd5b600088146103375781610339565b805b8460008151811061034657fe5b602002602001019073ffffffffffffffffffffffffffffffffffffffff16908173ffffffffffffffffffffffffffffffffffffffff16815250506000881461038e5780610390565b815b8460018151811061039d57fe5b602002602001019073ffffffffffffffffffffffffffffffffffffffff16908173ffffffffffffffffffffffffffffffffffffffff168152505060008089146103e657826103e8565b815b90508073ffffffffffffffffffffffffffffffffffffffff1663095ea7b37f0000000000000000000000000000000000000000000000000000000000000000866040518363ffffffff1660e01b8152600401808373ffffffffffffffffffffffffffffffffffffffff1673ffffffffffffffffffffffffffffffffffffffff16815260200182815260200192505050602060405180830381600087803b15801561049157600080fd5b505af11580156104a5573d6000803e3d6000fd5b505050506040513d60208110156104bb57600080fd5b81019080805190602001909291905050505060006104fa7f0000000000000000000000000000000000000000000000000000000000000000868861092e565b60008151811061050657fe5b6020026020010151905060007f000000000000000000000000000000000000000000000000000000000000000073ffffffffffffffffffffffffffffffffffffffff166338ed173987848a33620d2f006040518663ffffffff1660e01b815260040180868152602001858152602001806020018473ffffffffffffffffffffffffffffffffffffffff1673ffffffffffffffffffffffffffffffffffffffff168152602001838152602001828103825285818151815260200191508051906020019060200280838360005b838110156105ec5780820151818401526020810190506105d1565b505050509050019650505050505050600060405180830381600087803b15801561061557600080fd5b505af1158015610629573d6000803e3d6000fd5b505050506040513d6000823e3d601f19601f82011682018060405250602081101561065357600080fd5b810190808051604051939291908464010000000082111561067357600080fd5b8382019150602082018581111561068957600080fd5b82518660208202830111640100000000821117156106a657600080fd5b8083526020830192505050908051906020019060200280838360005b838110156106dd5780820151818401526020810190506106c2565b505050509050016040525050506001815181106106f657fe5b602002602001015190508273ffffffffffffffffffffffffffffffffffffffff1663a9059cbb8d8484036040518363ffffffff1660e01b8152600401808373ffffffffffffffffffffffffffffffffffffffff1673ffffffffffffffffffffffffffffffffffffffff16815260200182815260200192505050602060405180830381600087803b15801561078957600080fd5b505af115801561079d573d6000803e3d6000fd5b505050506040513d60208110156107b357600080fd5b810190808051906020019092919050505050505050505050505050505050565b60008060006107e28585610aae565b91509150858282604051602001808373ffffffffffffffffffffffffffffffffffffffff1673ffffffffffffffffffffffffffffffffffffffff1660601b81526014018273ffffffffffffffffffffffffffffffffffffffff1673ffffffffffffffffffffffffffffffffffffffff1660601b8152601401925050506040516020818303038152906040528051906020012060405160200180807fff000000000000000000000000000000000000000000000000000000000000008152506001018373ffffffffffffffffffffffffffffffffffffffff1673ffffffffffffffffffffffffffffffffffffffff1660601b8152601401828152602001807f96e8ac4277198ff8b6f785478aa9a39f403cb768dd02cbee326c3e7da348845f815250602001925050506040516020818303038152906040528051906020012060001c925050509392505050565b60606002825110156109a8576040517f08c379a000000000000000000000000000000000000000000000000000000000815260040180806020018281038252601e8152602001807f556e697377617056324c6962726172793a20494e56414c49445f50415448000081525060200191505060405180910390fd5b815167ffffffffffffffff811180156109c057600080fd5b506040519080825280602002602001820160405280156109ef5781602001602082028036833780820191505090505b5090508281600183510381518110610a0357fe5b6020026020010181815250506000600183510390505b6000811115610aa657600080610a5987866001860381518110610a3857fe5b6020026020010151878681518110610a4c57fe5b6020026020010151610c25565b91509150610a7b848481518110610a6c57fe5b60200260200101518383610d4e565b846001850381518110610a8a57fe5b6020026020010181815250505050808060019003915050610a19565b509392505050565b6000808273ffffffffffffffffffffffffffffffffffffffff168473ffffffffffffffffffffffffffffffffffffffff161415610b36576040517f08c379a00000000000000000000000000000000000000000000000000000000081526004018080602001828103825260258152602001806110536025913960400191505060405180910390fd5b8273ffffffffffffffffffffffffffffffffffffffff168473ffffffffffffffffffffffffffffffffffffffff1610610b70578284610b73565b83835b8092508193505050600073ffffffffffffffffffffffffffffffffffffffff168273ffffffffffffffffffffffffffffffffffffffff161415610c1e576040517f08c379a000000000000000000000000000000000000000000000000000000000815260040180806020018281038252601e8152602001807f556e697377617056324c6962726172793a205a45524f5f41444452455353000081525060200191505060405180910390fd5b9250929050565b6000806000610c348585610aae565b509050600080610c458888886107d3565b73ffffffffffffffffffffffffffffffffffffffff16630902f1ac6040518163ffffffff1660e01b815260040160606040518083038186803b158015610c8a57600080fd5b505afa158015610c9e573d6000803e3d6000fd5b505050506040513d6060811015610cb457600080fd5b81019080805190602001909291908051906020019092919080519060200190929190505050506dffffffffffffffffffffffffffff1691506dffffffffffffffffffffffffffff1691508273ffffffffffffffffffffffffffffffffffffffff168773ffffffffffffffffffffffffffffffffffffffff1614610d38578082610d3b565b81815b8095508196505050505050935093915050565b6000808411610da8576040517f08c379a000000000000000000000000000000000000000000000000000000000815260040180806020018281038252602c815260200180611027602c913960400191505060405180910390fd5b600083118015610db85750600082115b610e0d576040517f08c379a00000000000000000000000000000000000000000000000000000000081526004018080602001828103825260288152602001806110786028913960400191505060405180910390fd5b6000610e366103e8610e288787610e8b90919063ffffffff16565b610e8b90919063ffffffff16565b90506000610e616103e5610e538887610f2090919063ffffffff16565b610e8b90919063ffffffff16565b9050610e806001828481610e7157fe5b04610fa390919063ffffffff16565b925050509392505050565b600080821480610ea85750828283850292508281610ea557fe5b04145b610f1a576040517f08c379a00000000000000000000000000000000000000000000000000000000081526004018080602001828103825260148152602001807f64732d6d6174682d6d756c2d6f766572666c6f7700000000000000000000000081525060200191505060405180910390fd5b92915050565b6000828284039150811115610f9d576040517f08c379a00000000000000000000000000000000000000000000000000000000081526004018080602001828103825260158152602001807f64732d6d6174682d7375622d756e646572666c6f77000000000000000000000081525060200191505060405180910390fd5b92915050565b6000828284019150811015611020576040517f08c379a00000000000000000000000000000000000000000000000000000000081526004018080602001828103825260148152602001807f64732d6d6174682d6164642d6f766572666c6f7700000000000000000000000081525060200191505060405180910390fd5b9291505056fe556e697377617056324c6962726172793a20494e53554646494349454e545f4f55545055545f414d4f554e54556e697377617056324c6962726172793a204944454e544943414c5f414444524553534553556e697377617056324c6962726172793a20494e53554646494349454e545f4c4951554944495459a2646970667358221220bf788b01d8411142b16f45a68ae609b5065e45c40b351ae4f08e83297c88773964736f6c63430006060033",
  "immutableReferences": {
    "7": [
      {
        "length": 32,
        "start": 587
      },
      {
        "length": 32,
        "start": 1236
      }
    ],
    "12": [
      {
        "length": 32,
        "start": 1032
      },
      {
        "length": 32,
        "start": 1300
      }
    ]
  },
  "source": "pragma solidity >=0.6.6;\n\nimport './UniswapV2Library.sol';\nimport './IUniswapV2Router02.sol';\nimport './IUniswapV2Pair.sol';\nimport './IERC20.sol';\n\ncontract FlashLoaner {\n  address immutable factory;\n  uint constant deadline = 10 days;\n  address immutable sushiRouter;\n\n  constructor(address _factory, address _uniRouter, address _sushiRouter) public {\n    factory = _factory;\n    sushiRouter = address(_sushiRouter);\n  }\n\n  function uniswapV2Call(address _sender, uint _amount0, uint _amount1, bytes calldata _data) external {\n    address[] memory path = new address[](2);\n    uint amountToken = _amount0 == 0 ? _amount1 : _amount0;\n\n    address token0 = IUniswapV2Pair(msg.sender).token0();\n    address token1 = IUniswapV2Pair(msg.sender).token1();\n\n    require(msg.sender == UniswapV2Library.pairFor(factory, token0, token1), \"Unauthorized\");\n    require(_amount0 == 0 || _amount1 == 0);\n\n    path[0] = _amount0 == 0 ? token1 : token0;\n    path[1] = _amount0 == 0 ? token0 : token1;\n\n    IERC20 token = IERC20(_amount0 == 0 ? token1 : token0);\n\n    token.approve(address(sushiRouter), amountToken);\n\n    // no need for require() check, if amount required is not sent sushiRouter will revert\n    uint amountRequired = UniswapV2Library.getAmountsIn(factory, amountToken, path)[0];\n    uint amountReceived = IUniswapV2Router02(sushiRouter).swapExactTokensForTokens(amountToken,\n      amountRequired, path, address(msg.sender), deadline)[1];\n\n    // YEAHH PROFIT\n    token.transfer(_sender, amountReceived - amountRequired);\n\n  }\n}",
  "sourcePath": "/Users/chrisanatalio/projects/flashswap/contracts/FlashLoaner.sol",
  "compiler": {
    "name": "solc",
    "version": "0.6.6+commit.6c089d02.Emscripten.clang"
  },
  "schemaVersion": "3.4.5",
  "updatedAt": "2022-03-10T13:35:31.426Z",
  "devdoc": {
    "methods": {}
  },
  "userdoc": {
    "methods": {}
  }
}